:100000000C944B040C9489160C9462160C94730493
:100010000C9473040C9473040C94AD090C94730445
:100020000C9473040C9473040C9473040C94730474
:100030000C9473040C9473040C9473040C94730464
:100040000C9418160C9473040C9448170C942217F3
:100050000C9473040C9473040C9473040C94730444
:100060000C9497190C94730400407A10F35A00A072
:10007000724E18090010A5D4E80000E87648170071
:1000800000E40B54020000CA9A3B000000E1F505B1
:10009000000080969800000040420F000000A086FB
:1000A00001000000102700000000E803000000002D
:1000B0006400000000000A000000000001000000D1
:1000C00000002C76D888DC674F0823DFC1DFAE59EB
:1000D000E1B1B796E5E3E453C63AE651997696E87E
:1000E000E6C28426EB898C9B62ED407C6FFCEFBC02
:1000F0009C9F40F2BAA56FA5F490055A2AF75C932D
:100100006B6CF9676DC11BFCE0E40D47FEF520E662
:10011000B500D0ED902E0300943577050080841E45
:10012000080000204E0A000000C80C333333330FA0
:10013000986E12831141EF8D2114893BE65516CF3D
:10014000FEE6DB18D1844B381BF77C1D901DA4BB49
:10015000E424203284725E228100C9F124ECA1E5FE
:100160003D2754534D3A494E49540A002154534DAA
:100170003A494E49543A545350204641494C0A009A
:1001800054534D3A494E49543A545350204F4B0A18
:100190000054534D3A465041520A002154534D3AAF
:1001A000465041523A4E4F205245504C590A002178
:1001B00054534D3A465041523A4641494C0A005434
:1001C000534D3A465041523A4F4B0A0054534D3A20
:1001D00049443A5245510A0054534D3A49440A00A1
:1001E0002154534D3A49443A4641494C0A0054532C
:1001F0004D3A49443A4F4B0A0054534D3A55504CEE
:100200000A002154534D3A55504C3A4641494C0A44
:100210000054534D3A55504C3A444757432C4F3DA8
:1002200025642C4E3D25640A0054534D3A55504CDC
:100230003A4F4B0A0054534D3A52454144593A49BA
:10024000443D25642C5041523D25642C4449533D86
:1002500025640A002154534D3A52454144593A55B8
:10026000504C204641494C2C534E500A0054534D9B
:100270003A4641494C3A5044540A0054534D3A4688
:1002800041494C3A434E543D25640A0054534D3A7B
:100290004641494C3A52452D494E49540A0054535F
:1002A000463A5349443A4F4B2C49443D25640A0091
:1002B000215453463A5349443A4641494C2C494407
:1002C0003D25640A0025735453463A4D53473A532B
:1002D000454E442C25642D25642D25642D25642C44
:1002E000733D25642C633D25642C743D25642C707E
:1002F000743D25642C6C3D25642C73673D25642C6E
:1003000066743D25642C73743D25733A25730A0089
:10031000215453463A5254453A256420554E4B4E8B
:100320004F574E0A00215453463A5254453A4650CC
:100330004152204143544956450A00215453463AFC
:10034000534E443A544E520A005453463A43525480
:100350003A4F4B0A004D434F3A50494D3A524F5590
:100360005445204E3D25642C523D25640A004D43E2
:100370004F3A50494D3A4E4F4445205245473D254E
:10038000640A005453463A504E473A53454E442C63
:10039000544F3D25640A00215453463A504E473A83
:1003A0004143544956450A005453463A434B553A43
:1003B0004641494C0A005453463A434B553A444748
:1003C00057432C4F3D25642C4E3D25640A00545361
:1003D000463A434B553A4F4B0A005453463A434B27
:1003E000553A4F4B2C464354524C0A005453463A0C
:1003F0004D53473A52454C2050784E472C48503D7B
:1004000025640A005453463A4D53473A52454C200E
:100410004D53470A005453463A4D53473A465744C2
:10042000204243204D53470A00215453463A4D532E
:10043000473A47574C204641494C0A005453463AE4
:100440004D53473A47574C204F4B0A005453463AB6
:100450004D53473A46504152205245512C49443D54
:1004600025640A005453463A4D53473A42430A0022
:100470005453463A4D53473A41434B0A0021545393
:10048000463A4D53473A504F4E4720524543562C1B
:10049000494E4143544956450A005453463A4D5338
:1004A000473A504F4E4720524543562C48503D2521
:1004B000640A005453463A4D53473A50494E474513
:1004C000442C49443D25642C48503D25640A0021B4
:1004D0005453463A4D53473A4650415220494E41B3
:1004E00043544956450A005453463A4D53473A46F9
:1004F000504152204F4B2C49443D25642C443D250E
:10050000640A005453463A4D53473A41434B2052F4
:1005100045510A00215453463A4D53473A505645E7
:10052000522C25643D25640A00215453463A4D530C
:10053000473A4C454E2C2564213D25640A0054530E
:10054000463A4D53473A524541442C25642D256483
:100550002D25642C733D25642C633D25642C743D4E
:1005600025642C70743D25642C6C3D25642C7367C8
:100570003D25643A25730A00215453463A53414EAF
:100580003A4641494C0A005453463A53414E3A4F79
:100590004B0A00AED580A83FD300408D142002A1A5
:1005A000C8DA12817FD9F1DB40A4A6AF4D434F3AA0
:1005B0005245473A5245510A005453463A5755520C
:1005C0003A4D533D256C750A004D434F3A42474E14
:1005D0003A494E4954204F4B2C5453503D25640A00
:1005E000004D434F3A42474E3A5354500A004D4350
:1005F0004F3A42474E3A4246520A004D434F3A4222
:10060000474E3A494E49542052455045415445526F
:100610002C43503D524E4E52412D2D2C5645523DAD
:10062000322E312E310A0000000507206000000044
:10063000000000005F00000007000700147F147F27
:1006400014242A7F2A122313086462364956205044
:100650000008070300001C2241000041221C002A60
:100660001C7F1C2A08083E0808008070300008081B
:10067000080808000060600020100804023E51498C
:10068000453E00427F400072494949462141494D5B
:10069000331814127F1027454545393C4A494931E2
:1006A00041211109073649494936464949291E0061
:1006B000001400000040340000000814224114140B
:1006C000141414004122140802015909063E415D28
:1006D000594E7C1211127C7F494949363E414141B5
:1006E000227F4141413E7F494949417F0909090132
:1006F0003E414151737F0808087F00417F4100203F
:1007000040413F017F081422417F404040407F022A
:100710001C027F7F0408107F3E4141413E7F090952
:1007200009063E4151215E7F09192946264949495A
:100730003203017F01033F4040403F1F2040201F04
:100740003F4038403F631408146303047804036196
:1007500059494D43007F41414102040810200041A6
:1007600041417F0402010204404040404000030731
:10077000080020545478407F284444383844444486
:1007800028384444287F385454541800087E0902FD
:1007900018A4A49C787F0804047800447D400020BD
:1007A00040403D007F1028440000417F40007C0411
:1007B0007804787C080404783844444438FC1824CD
:1007C000241818242418FC7C0804040848545454A1
:1007D0002404043F44243C4040207C1C2040201C36
:1007E0003C4030403C44281028444C9090907C443D
:1007F00064544C440008364100000077000000417A
:1008000036080002010204023C2623263C93051907
:100810008040000000000023002600290000030C97
:100820000F30333C3FC0C3CCCFF0F3FCFF000000DF
:10083000080002010000030407000000000000009F
:1008400000214D434F3A534E443A4E4F4445204EBB
:100850004F54205245470A000000000025002800A0
:100860002B0000000000240027002A0004040404D8
:10087000040404040202020202020303030303034A
:100880000102040810204080010204081020010227
:10089000040810200A2011241FBECFEFD8E0DEBFCD
:1008A000CDBF12E0A0E0B1E0E0E1F3E502C00590C9
:1008B0000D92AA36B107D9F725E0AAE6B2E001C049
:1008C0001D92A83AB207E1F714E0CBE4D4E004C0EB
:1008D0002197FE010E946C29CA34D107C9F70E94F2
:1008E0002F1F0C9486290C940000089580E090E05E
:1008F000089591E59CBD91E09DBD2A98E3E2F0E06A
:100900003197F1F78EBD00000DB407FEFDCF8EB517
:10091000FB019FEF4150C8F0222361F09EBD000013
:100920000DB407FEFDCF8EB56115710599F3808377
:100930003196F0CFDF01119680818EBD00000DB49D
:1009400007FEFDCF8EB5FD01E5CF2A9AE3E2F0E088
:100950003197F1F70895CF93DF931F92CDB7DEB7AC
:10096000698320E041E0BE016F5F7F4F0E94790400
:100970000F90DF91CF9108956FE080E20E94AB0469
:10098000609118016F3F19F08AE20E94AB04299A26
:10099000089520E040E060E070E00C947904E0917C
:1009A0006B02F0916C020280F381E02D309709F028
:1009B00009958091750284FD0C942A0A08950F937D
:1009C0001F930E940C1600916D0210916E022091EF
:1009D0006F0230917002601B710B820B930B1F91A1
:1009E0000F9108959C0180916B0290916C02821787
:1009F000930751F0909175029F7190937502309317
:100A00006C0220936B0205C080917502805E80931A
:100A10007502E0916B02F0916C020190F081E02D83
:100A2000309709F009950E940C1660936D0270933F
:100A30006E0280936F02909370020895EF92FF927E
:100A40000F931F93CF93DF93CDB7DEB7C857D1096C
:100A50000FB6F894DEBF0FBECDBF8E010F571F4FEC
:100A6000F801E190F1908F010E940C16AB01BC01DE
:100A70002AE089E993E00E94C51667E571E089E9FB
:100A800093E00E94B0169801A70168E770E0CE01DC
:100A900001960E947D21BE016F5F7F4F89E993E03F
:100AA0000E94B01689E993E00E94E714C858DF4F0E
:100AB0000FB6F894DEBF0FBECDBFDF91CF911F916F
:100AC0000F91FF90EF9008958F929F92AF92BF92F7
:100AD000CF92DF92EF92FF920F931F93CF93DF930A
:100AE0008C01DC011296CC918091750280FF0CC0C4
:100AF000CF3F51F185E293E09F938F930E941E05B3
:100B00000F900F90D0E0F8C0C11103C0C0919703BF
:100B10001BC0CF3FC9F08C2F90E003960E94D127D5
:100B20008F3F89F41F92CF9380E193E09F938F933F
:100B30000E941E05809197030F900F900F900F90C9
:100B4000F80190819813C82F80919603D8018C9357
:100B500013964C9142FD06C0469546954695D7E0C2
:100B6000D40F01C0D0E280E090E0892B21F080E03A
:100B700090E00E940000299883E092E00197F1F74D
:100B80006EE080E20E94AB048BE891E00197F1F700
:100B90006C2F8AE20E94AB046C2F80E30E94AB04AE
:100BA00081EE0E94C904CF3F11F080EA01C080EBC2
:100BB0004D2FD13208F040E220E0B8010E947904C4
:100BC000299AE12CF12C8FEF0E94C904D82F807351
:100BD00021F4B1E0EB1AF108B1F7299860E387E25C
:100BE0000E94AB04D4FF03C081EE0E94C9040E949E
:100BF000BC04D5FBDD27D0F981E0CF3F09F080E0D0
:100C0000D82BC8010E94501BD11103C0ECE5F1E0C4
:100C100002C0E9E5F1E0609176026F70D8011396A9
:100C20002C91139722FBAA24A0F8322F36953695E3
:100C3000369514962C911497B22EB294B69447E040
:100C4000B4221596CC90159727701696DC901697BF
:100C50001296EC9012978C2E912CFC9011967C9110
:100C6000D11103C041E651E002C044E352E09F933A
:100C70008F93FF93EF931F926F931F92AF921F92E8
:100C80003F931F92BF921F92CF921F922F931F925A
:100C9000DF921F92EF929F928F921F92FF921F926C
:100CA0007F935F934F9385EC92E09F938F930E9485
:100CB0001E05EDB7FEB77E960FB6F894FEBF0FBEC9
:100CC000EDBF80919703C81317C0D11110C080E009
:100CD00090E0892B21F085E690E00E940000809151
:100CE000760291E0980F9F70807F892B03C08091DE
:100CF0007602807F809376028D2FDF91CF911F91B6
:100D00000F91FF90EF90DF90CF90BF90AF909F90AA
:100D10008F9008952091750222FD0C9464058BE359
:100D200093E09F938F930E941E050F900F9080E099
:100D30000895CF93C82F8FEF8C0F8E3F08F5C09387
:100D40009603C093180163E082E20E94AB0461E065
:100D500081E20E94AB040E94BC046C2F80E090E012
:100D60000E94E9271F92CF938EE992E09F938F9381
:100D70000E941E050F900F900F900F9081E018C0F9
:100D80001F92CF9380EB92E09F938F930E941E055A
:100D90000F900F900F900F9080E090E0892B21F042
:100DA0008EE690E00E9400008FEF8093960380E033
:100DB000CF9108950F931F930E94DF042091760234
:100DC0002077203729F000E117E220E030E004C06E
:100DD00000E61AEE20E030E006171707280739076B
:100DE00070F48CE892E09F938F930E941E050F9001
:100DF0000F908DE191E01F910F910C94F2041F91DF
:100E00000F91089580917602982F9077903759F03E
:100E1000982F92959F709F5F97709295907F8F7893
:100E2000892B8093760280917602829587701F923B
:100E30008F938BE792E09F938F930E941E05809182
:100E400075028B7F8F7E809375020F900F900F90AD
:100E50000F9080E090E0892B21F087E690E00E94DF
:100E600000008DE692E09F938F930E941E052998C3
:100E70000F900F906CE080E20C94AB0480917602AE
:100E80008F708B3060F084E592E09F938F930E9487
:100E90001E050F900F9084E191E00C94F2040895E8
:100EA000809198031F928F93809197031F928F9345
:100EB000809196031F928F9385E392E09F938F9387
:100EC0000E941E0580917502846080937502809156
:100ED0007602807880937602E0917C02F0917D0228
:100EE0008DB79EB708960FB6F8949EBF0FBE8DBF04
:100EF000309709F009940895809177028F3F79F136
:100F00000E940C16609371027093720280937302B8
:100F10009093740289E292E09F938F930E941E0542
:100F200090917702809198030F900F909817A1F0FD
:100F30001F929F931F928F9381E192E09F938F93D3
:100F40000E941E0580917702809398030F900F9066
:100F50000F900F900F900F9080E191E025C00E94BC
:100F6000DF04613D77408105910500F180917502B4
:100F7000803618F48CE091E017C082E092E09F93F5
:100F80008F930E941E0580917502877F8093750262
:100F90000F900F9080E090E0892B21F08AE690E09E
:100FA0000E94000084E191E00C94F204089589EF1E
:100FB00091E09F938F930E941E050F900F9080E009
:100FC00090E0892B21F088E090E00E9400008FEFF4
:100FD000809377028091750288608093750228E182
:100FE00043E06FEF80E00E94FA1A61E00E942D1248
:100FF0000C946405809196038F3F99F08EEE91E0FA
:101000009F938F930E941E050F900F9080E090E0B9
:10101000892B21F087E090E00E9400008CE091E0B5
:1010200020C00E94DF04613D774081059105D8F022
:1010300080917502803618F488E091E012C080EE4D
:1010400091E09F938F930E941E050F900F9080E078
:1010500090E0892B21F089E690E00E94000089E170
:1010600091E00C94F204089588ED91E09F938F93A2
:101070000E941E050F900F90809196038F3FE1F420
:1010800080E090E0892B21F086E090E00E94000053
:101090008CEC91E09F938F930E941E0523E043E028
:1010A0006FEF80E00E94FA1A64E372E00E94FB1284
:1010B0000F900F900C94640508950E94DF04613D29
:1010C00077408105910520F48091750281FF089594
:1010D000809197038F3FC1F08FEB91E09F938F93A7
:1010E0000E941E05809175028E7F809375020F907D
:1010F0000F9080E090E0892B21F085E090E00E9445
:10110000000088E091E021C080917502803658F49B
:101110008BE991E09F938F930E941E050F900F9093
:1011200084E191E012C08FEA91E09F938F930E9437
:101130001E050F900F9080E090E0892B21F088E64B
:1011400090E00E94000089E191E00C94F20481E9B2
:1011500091E09F938F930E941E050F900F9080E067
:1011600090E0892B21F084E090E00E9400008091C3
:101170007502897F8160809375028FEF8093980359
:101180008093970327E043E06FEF0E94FA1A64E32D
:1011900072E00E94FB120C946405CF93219A229A6C
:1011A000CFB7F89480916A02811124C0E6E7F8E095
:1011B0008491EAE8F8E09491E82FF0E0EE0FFF1F49
:1011C000EE59F74FA591B491EC91E92321F461E038
:1011D0008AE00E94DD1D8AE00E94311B8CB580618F
:1011E0008CBD8CB580648CBD8DE00E94311B8BE082
:1011F0000E94311B80916A028F5F80936A02CFBF89
:1012000029982A9A6EE080E20E94AB0465E070E0C3
:1012100080E090E00E94241E63E083E20E94AB0421
:101220006FE584E20E94AB046CE485E20E94AB04AB
:1012300067E286E20E94AB0463E780E50E94AB04AC
:1012400066E08DE30E94AB040E94F113882309F449
:1012500046C062E082E20E94AB0460E081E20E944C
:10126000AB0463E08CE30E94AB048FEF8093030137
:1012700020E045E063E071E08BE20E94790420E029
:1012800045E063E071E08AE20E94790420E045E0F5
:1012900063E071E080E30E94790482EE0E94C90459
:1012A00081EE0E94C90460E787E20E94AB0480E8F7
:1012B00091E09F938F930E941E058091750280613B
:1012C00080937502809196030F900F908F3FC1F02D
:1012D0000E949906811114C089E191E013C08CE647
:1012E00091E09F938F930E941E050F900F9080E0D6
:1012F00090E0892B89F387E690E00E940000ECCF14
:1013000084E191E0CF910C94F20482E691E09F9306
:101310008F930E941E05E5E7F2E08081877F8F7E34
:1013200080831092710210927202109273021092D6
:1013300074020E940C166093780270937902809375
:101340007A0290937B020F900F9043E050E060E0B0
:1013500070E086E993E00C94C1271F920F920FB6BC
:101360000F9211240F900FBE0F901F9018950F939E
:101370001F93CF93FC012581223009F067C08C01B7
:101380000E94E013C1E0811101C0C0E0F801868134
:101390008630D9F46C2F85E00E94DD1D6C2F83EA26
:1013A00091E00E94E927809187048770886080938C
:1013B0008704809188048F71806280938804C09331
:1013C0008B0484E894E00E94ED1CF801868187304C
:1013D000D9F46C2F86E00E94DD1D6C2F84EA91E029
:1013E0000E94E92780916604877088608093660474
:1013F000809167048F71806280936704C0936A0450
:1014000083E694E00E94ED1CF80186818830F1F4B7
:101410006C2F87E00E94DD1D6C2F85EA91E00E9411
:10142000E927809145048770886080934504809106
:1014300046048F71806280934604C093490482E41D
:1014400094E0CF911F910F910C94ED1CCF911F91BF
:101450000F9108952F923F924F925F926F927F92D9
:101460008F929F92AF92BF92CF92DF92EF92FF92B4
:101470000F931F93CF93DF93CDB7DEB727970FB6A8
:10148000F894DEBF0FBECDBF0E940C16009178020B
:101490001091790220917A0230917B02DC01CB011C
:1014A000801B910BA20BB30B813A9B4BAD40B10556
:1014B000D0F00E940C1660937802709379028093AA
:1014C0007A0290937B020E94F11381111EC088E77B
:1014D00095E09F938F930E941E0589E191E00E9401
:1014E000F2040F900F9036E0E32E40E0C42E40E06F
:1014F000D42ECE0101969C838B8354EB452E5BE268
:10150000552E51E1652E712C97C087E895E09F9389
:101510008F930E941E05E5CFEA94EE2009F406C5DC
:10152000C114D10421F081E090E00E94000021E08C
:1015300041E060E070E080E60E947904F82E90E2DD
:10154000981720F482EE0E94C904F12C21E04F2D5F
:1015500063E875E081E60E94790460E487E20E9416
:10156000AB0480918605282F2695269526952A314D
:1015700008F029E182FD6AC047E0420F80918705AB
:1015800087708D83009188051091840530908305C4
:101590002090850583E895E02E834F830E94501BA1
:1015A0002E81A22EB12C812E912C9F938F9380910E
:1015B000860582FB882780F91F928F931F922F93B5
:1015C000809187058295869587701F928F931F92D1
:1015D0000F931F923D813F93809189051F928F93B6
:1015E0001F922F921F923F921F921F93AEE3B5E07E
:1015F000BF93AF930E941E050FB6F894DEBF0FBED7
:10160000CDBF4F81F41621F1C114D10429F08CE62D
:1016100090E00E9400004F811F924F931F92FF9213
:1016200089E295E09F938F930E941E050F900F9083
:101630000F900F900F900F9021E041E060E070E07C
:1016400087E10E94790480FD71C466CF40E296CFA5
:10165000809186058370823091F0C114D10421F00D
:101660008DE690E00E9400001F9282E08F938091AF
:10167000860583701F928F9384E195E0D3CF80918C
:101680009703381649F080919603181729F0632DB7
:10169000C40103960E94E9278091760280688093B6
:1016A000760280919603281256C020918605822FDB
:1016B0008695869586958A3108F089E138E0839F82
:1016C000C00111242770822B80938605F501ED5708
:1016D000FA4F17828091870583FF21C083E095E050
:1016E0009F938F930E941E0581E2E3E8F5E0A2E656
:1016F000B5E001900D928A95E1F780916605877FAC
:1017000080618093660580919603809363051093B2
:10171000640582E695E00E948A060F900F909091F2
:10172000870594FD0BC03D81333081F4809188059D
:1017300021EF280F233008F0AFC07ECF80E794E080
:101740009F938F930E941E050F900F9083E895E062
:101750000E94B70971CF2FEF22126DC0A4E6B4E04A
:10176000BF93AF930E941E050F900F903D813330C1
:1017700009F053C08091750282FF32C0073081F5B5
:1017800080919703181709F457CF1F921F93ACE469
:10179000B4E0BF93AF930E941E050E940C16809088
:1017A000710290907202A0907302B0907402DC01FA
:1017B000CB0188199909AA09BB090F900F900F90C6
:1017C0000F9080319742A105B10508F0CEC28AED95
:1017D00093E09F938F930E941E050F900F9065C317
:1017E000083009F429CF0431C1F4809197033812ED
:1017F00014C00E940C167370882799270E94241E1B
:101800000091970325E143E06FEF812F0E94FA1AC0
:10181000602F0E942D120E94640580919703381258
:101820000BCF80919603181709F47BC38091750242
:1018300082FD62C376C38091750282FFFDCEA4E073
:10184000B4E0BF93AF930E941E050F900F903D81AF
:101850003330E9F408510230D0F483E895E00E9477
:10186000E0138E3FA1F01F928F93ACEEB3E0BF93D5
:10187000AF938E830E941E058E8161E0680F83E81E
:1018800095E00E942D120F900F900F900F9083E81B
:1018900095E00E946405D0CE043039F483E895E0E9
:1018A0000E94E0130E949906C7CE083021F50091EE
:1018B000750200FF1DC083E895E00E94E0138F3F92
:1018C00009F4BACE8F5F8F3F09F4B6CE909198039A
:1018D000891708F0B1CE01FDAFCE80939803109325
:1018E00097031F928F931F921F9387EE94E09ACED7
:1018F0008FEC94E032C00831D1F483E895E00E9487
:10190000E0131F928F931F921F9383EB94E09F939A
:101910008F930E941E0529E143E06FEF812F0E9403
:10192000FA1A61E00E942D120E9464057FCE0931EF
:10193000C9F48091750283FF0EC0877F8093750282
:1019400083E895E00E94E013809377021F928F93C3
:101950008AE994E03EC08DE794E09F938F930E94C4
:101960001E05C7C2209184052111FBC18D3099F459
:1019700080E090E0892B21F08BE090E00E94000055
:1019800098E088E10FB6F894A895809360000FBEA8
:1019900090936000FFCF8B3109F583E895E00E94BA
:1019A000E01391E0811101C090E08091620390FB0F
:1019B00080F980936203C114D10421F08AE090E0A1
:1019C0000E9400008091620381701F928F938EE6C7
:1019D00093E09F938F930E941E05F3C1863099F484
:1019E00090918A0581E0992319F09D3409F080E0F7
:1019F0008093610341E050E063E071E081E693E0B1
:101A00000E94D92719CE833119F40E94681314CE8D
:101A10008231D9F40E94DF044B015C0126E143E0EE
:101A20006FEF80E00E94FA1AFC0184818F71806A56
:101A30008483838187708062838387829086A18676
:101A4000B286CF010E948A06F7CD813001F520E0F1
:101A500030E0232B09F4F0CD929596959770953050
:101A600049F460918A0570918B0580918C05909165
:101A70008D050AC0911105C08AE895E00E94E32017
:101A800003C060E070E0CB010E940000D5CD8A3039
:101A900059F580918A05833409F0CECDC114D10463
:101AA00021F08DE090E00E94000003E010E06FEF75
:101AB000C8010E94E9270F5F1F4F033081E018071C
:101AC000B1F789E493E09F938F930E941E052AE06B
:101AD00043E06FEF80E00E94FA1A69E571E00E942E
:101AE000FB120E942B1205C28C3109F02FCE80917F
:101AF0008A05823509F04AC000E010E0C80103966B
:101B00000E94D127F82E9FEF891307C00F5F1F4F48
:101B10000115A1E01A0791F78FCD1F928F931F93A4
:101B20000F93A5E5B3E0BF93AF930E941E052CE190
:101B300043E06FEF80E00E94FA1AFC018381877016
:101B40008061838384818F71806C84830783F086B6
:101B5000CF010E942B120E940C164B015C010F90CA
:101B60000F900F900F900F900F900E940C16DC01B9
:101B7000CB0188199909AA09BB09883C9105A105DF
:101B8000B10520F6A8950E94CF04EFCF863599F5D0
:101B90008EE480937C0066E470E080E090E00E9438
:101BA000241E80917A00806480937A0080917A006C
:101BB00086FDFCCFA0907800B09079002CE143E046
:101BC0006FEF80E00E94FA1A8C01DC0114968C9170
:101BD00014978F71806614968C93149713968C913A
:101BE00013978770806113968C93950140E050E0C5
:101BF000C301B2015DC0863409F063C0F8948FEF71
:101C000086BB109285001092840010928000109282
:101C10008200909160002DE088E10FB6F894A895BD
:101C2000809360000FBE209360008091600080640C
:101C300080936000A89585E080938100809160008A
:101C400087FFFCCF10928100A89580916000886189
:101C500080936000909360007894A0908400B0908E
:101C600085002CE143E06FEF80E00E94FA1A8C01BE
:101C7000DC0114968C9114978F71806614968C9366
:101C8000149713968C9113978770806113968C9399
:101C9000C501A0E0B0E0BC01CD012BE0660F771FCD
:101CA000881F991F2A95D1F720EA36E841E050E0D5
:101CB0000E944A29F80130872783C8010E942B120D
:101CC000BBCC8D3401F50091A4051091A50501153B
:101CD000110511F408EA15E02CE143E06FEF80E014
:101CE0000E94FA1AFC0184818F718066848383814B
:101CF0008770806183838B819C81801B910B90878F
:101D00008783CF01DBCF853409F096CC2CE143E00B
:101D10006FEF80E00E94FA1A69E571E00E94FB1201
:101D20000E942B1200E010E06FEFC8010E94E9272B
:101D30000F5F1F4F0D39F1E01F07B1F780E090E012
:101D4000892B21F08BE090E00E94000098E088E170
:101D50000FB6F894A895809360000FBE9093600032
:101D6000FFCF8A3109F0F2CC67CC8091750283FDF8
:101D700057C01F921F9283E893E09F938F930E9416
:101D80001E050F900F900F900F9080919603811178
:101D90001DC01092770280917502877F8093750233
:101DA000009177020F3F09F044C088EA93E09F93C7
:101DB0008F930E941E0589E294E09F938F930E9467
:101DC0001E050F900F900F900F9036CC80917502EA
:101DD0008860809375022092770228E143E06FEFDC
:101DE00080E00E94FA1A61E00E942D120E946405B0
:101DF0000E940C164B015C011092880500E00E94C5
:101E00000C16DC01CB0188199909AA09BB09803D90
:101E10009740A105B10508F0BECF002399F1BBCFD3
:101E200087E993E09F938F930E941E050F900F9078
:101E3000BCCF0E940C166093710270937202809363
:101E40007302909374028EEC93E09F938F930E94A1
:101E50001E05809198030F900F90081731F11F9283
:101E60000F931F928F9386EB93E09F938F930E9423
:101E70001E05009398030F900F900F900F900F90F6
:101E80000F9013C08091750284FD0E942A0AA895C4
:101E9000809187058770833009F0B1CF01E0809190
:101EA0008805893109F0AACFAACF0E940C16609349
:101EB00071027093720280937302909374028CE3A8
:101EC00094E09F938F930E941E050E940C167370DE
:101ED000882799270E94241E0091980328E043E058
:101EE0006FEF812F0E94FA1A602F0E942D120E941C
:101EF00064050F900F90A0CBA5E1B4E0BF93AF9322
:101F00000E941E0583E895E00E9464050F900F90E3
:101F10003D81333009F490CB8091970338128CCBFC
:101F200015CC3D81333009F011CC86CB27960FB606
:101F3000F894DEBF0FBECDBFDF91CF911F910F91FF
:101F4000FF90EF90DF90CF90BF90AF909F908F90D9
:101F50007F906F905F904F903F902F900895CF9219
:101F6000DF92EF92FF92CF930E940C16C090A002D6
:101F7000D090A102E090A202F090A302DC01CB017C
:101F80008C199D09AE09BF0981369A4EA105B1058C
:101F900008F468C10E940C166093A0027093A1021D
:101FA0008093A2029093A3020E945E1E882349F0B0
:101FB000C0904F05D0905005E0905105F09052052B
:101FC00006C0C12CD12C20ECE22E2FE7F22EC092BD
:101FD0009C02D0929D02E0929E02F0929F02A70185
:101FE0009601C701B6010E944529882339F063E6AE
:101FF00071E089E993E00E940E1730C020919802A9
:102000003091990240919A0250919B02C701B6010A
:102010000E949D26882311F1C0929802D0929902C5
:10202000E0929A02F0929B0280912C058770886260
:1020300080932C0580912D05806E80932D05C09294
:102040003005D0923105E0923205F092330581E0FF
:102050008093340589E295E00E94ED1C0E945E1E8B
:10206000882349F0C0904B05D0904C05E0904D0579
:10207000F0904E0506C0C12CD12C90ECE92E9FE7C4
:10208000F92EC0929402D0929502E0929602F092BC
:102090009702A7019601C701B6010E94452988232E
:1020A00039F06AE871E089E993E00E940E1730C0C8
:1020B00020919002309191024091920250919302AE
:1020C000C701B6010E949D26882311F1C09290029B
:1020D000D0929102E0929202F092930280910B05CD
:1020E0008770886280930B0580910C05806E8093C9
:1020F0000C05C0920F05D0921005E0921105F092E8
:10210000120581E08093130588E095E00E94ED1CA4
:1021100081E00E940D1EBC01990F880B990B0E9453
:10212000A4266B017C0160938C0270938D028093D6
:102130008E0290938F029B01AC010E944529882357
:1021400039F06EEA71E089E993E00E940E1730C021
:10215000209188023091890240918A0250918B022D
:10216000C701B6010E949D26882311F1C092880202
:10217000D0928902E0928A02F0928B028091EA0466
:10218000877088628093EA048091EB04806E80936C
:10219000EB04C092EE04D092EF04E092F004F092CF
:1021A000F10481E08093F20487EE94E00E94ED1C3C
:1021B00080E00E940D1E6FEF73E0681B790B072E05
:1021C000000C880B990B0E94A42624E13EEA43E20E
:1021D00051E40E949F286B017C01609384027093FC
:1021E000850280938602909387029B01AC010E9436
:1021F0004529882339F067ED71E089E993E00E9471
:102200000E1730C0209180023091810240918202ED
:1022100050918302C701B6010E949D26882311F1C7
:10222000C0928002D0928102E0928202F0928302F8
:102230008091C904877088628093C9048091CA0420
:10224000806E8093CA04C092CD04D092CE04E092F6
:10225000CF04F092D00481E08093D10486EC94E026
:102260000E94ED1CE5E3F8E08491E8E8F8E0F490E2
:10227000E4E7F8E0C491CC2379F081110E94B41D09
:10228000EC2FF0E0EE0FFF1FED5EF74FA591B4913C
:10229000EC91EF21C1E009F4C0E0C170C0937F026E
:1022A0006C2F70E080E090E00E94A2266B017C0120
:1022B0009B01AC010E944529882339F06EEF71E043
:1022C00089E993E00E940E1720C080917E02C81712
:1022D000E1F0C0937E028091A804877088628093A9
:1022E000A8048091A904806E8093A904C092AC04D4
:1022F000D092AD04E092AE04F092AF0481E08093FE
:10230000B00485EA94E00E94ED1C81E080935C05B6
:1023100041E060E083E595E00E949A1765E272E093
:1023200083E595E00E94B01660919C0270919D0239
:1023300080919E0290919F0242E00E94ED1B68E214
:1023400072E083E595E00E940E176AE272E083E591
:1023500095E00E94B0166091940270919502809170
:1023600096029091970242E00E94ED1B6DE272E0AE
:1023700083E595E00E940E176FE272E083E595E039
:102380000E94B01660918C0270918D0280918E0235
:1023900090918F0242E00E94ED1B62E372E083E5C0
:1023A00095E00E94B01665E372E083E595E00E9437
:1023B000B01660918402709185028091860290919E
:1023C000870242E00E94ED1B62E372E083E595E044
:1023D000CF91FF90EF90DF90CF900C94B0160F93B9
:1023E0001F93CF93DF93EC01062F142F8E8581313D
:1023F00020F4882331F0411104C081E00E94061DC1
:102400001E868E85811113C08D8591E090933D03CA
:1024100080935F0310923E0310926003112311F02A
:1024200060E401C060E086E394E00E94B615602F8E
:1024300086E394E00E94B615123021F48E858F5FFA
:102440008E8704C081E00E94061D1E86DF91CF9119
:102450001F910F9108950C948A06FC018381877067
:102460008860838384818F71806284836783CF01D6
:1024700008950F931F93CF93DF930E94091B10922F
:10248000F5021092F40210923E03109260030E9433
:10249000C51A1092F5021092F40210923E031092A7
:1024A00060030E94C51A84E480934A0582EA90E39F
:1024B0000E94631D6AE070E080E090E00E94241EAC
:1024C000109261058CE3809360051092570510927D
:1024D0005805EDE0F8E085919491182FEFE0F8E0D1
:1024E0000491E0E1F8E0E491E0935905E1E1F8E0DE
:1024F000E491E0935A05E2E1F8E0E491E0935B05B2
:10250000C12FD92F8C2F811B801740F4FE016491BD
:1025100083E595E00E947A172196F4CF10925D052D
:1025200000915A050695069506950150409159056A
:10253000415020E060E083E595E00E94C31781E010
:1025400090915D05911101C080E080935D0560E48C
:1025500083E595E00E947A178CE08093B80087E2CB
:1025600096E090935F0580935E0585E00E94311BA5
:1025700083EA91E00E94D127682F85E00E94DD1D4B
:1025800083EA91E00E94D127682F84E894E00E94BA
:102590002D120E94ED1C86E00E94311B84EA91E01E
:1025A0000E94D127682F86E00E94DD1D84EA91E019
:1025B0000E94D127682F83E694E00E942D120E948A
:1025C000ED1C87E00E94311B85EA91E00E94D12733
:1025D000682F87E00E94DD1D85EA91E00E94D127E7
:1025E000682F82E494E00E942D12DF91CF911F9119
:1025F0000F910C94ED1C0F931F93CF93DF93EC017D
:102600006115710561F0FB0101900020E9F7319738
:10261000E61BF70BE931F10518F0E9E101C0E0E054
:102620000E2F10E0C80123E0880F991F2A95E1F7CB
:102630009B819770892B8B838C818F718C83EE2388
:1026400029F0A801CE0107960E947729FE01E00F2C
:10265000F11F1782CE01DF91CF911F910F91089545
:102660002BE043E06FEF80E00E94FA1A68E372E02B
:102670000E94FB120E948A062CE043E06FEF80E08C
:102680000E94FA1A64E572E00E94FB120E948A0618
:1026900066E081E00E94D71C67E082E00E94D71CC0
:1026A00063E283E00E94D71C60E184E00E94D71CB3
:1026B00060E085E00E94D71C63E086E00E94D71CA2
:1026C00063E087E00E94D71C63E088E00C94D71C8D
:1026D000CF9380E090E0892B21F08CE090E00E9485
:1026E00000002FE043E06FEF80E00E94FA1A64E3FD
:1026F00072E00E94FB128091650587708061809373
:102700006505809166058F71806C8093660581E018
:102710008093690510926A0582E695E00E948A0618
:102720008FE00E947E1D62E18FEF0E94D71CC09156
:10273000970326E043E06FEF80E00E94FA1A6C2FC7
:102740000E942D120E942B1286E00E947E1DCF91C6
:102750000C943013CF938091620381FD2FC00E94AF
:1027600068138CEA95E09F938F930E941E050F904B
:102770000F9080E090E0892B21F089E090E00E94AA
:10278000000080916203816080936203C4E02AE1CB
:1027900043E06FEF80E00E94FA1A62E00E942D127F
:1027A0000E942B128BE10E947E1D811102C0C1503C
:1027B00071F780916203826080936203CF910895E4
:1027C000FC012481229526952770213011F4878100
:1027D0000895211104C007960E94C520089580E045
:1027E0000895CF9321E041E060E070E086E00E9430
:1027F0007904C82F21E041E060E070E085E00E94AC
:10280000790421E08C3409F020E081E0C73209F03E
:1028100080E08223CF9108950895CF92DF92EF92C6
:10282000FF920F931F93CF93DF936C017A018B017B
:10283000C0E0D0E0CE15DF0589F0D8016D918D01A3
:10284000D601ED91FC910190F081E02DC601099532
:10285000892B11F47E0102C02196ECCFC701DF91D4
:10286000CF911F910F91FF90EF90DF90CF9008953F
:10287000FC01538D448D252F30E0842F90E0821B86
:10288000930B541710F0CF96089501970895FC010B
:10289000918D828D981761F0828DDF01A80FB11D97
:1028A0005D968C91928D9F5F9F73928F90E00895BB
:1028B0008FEF9FEF0895FC01918D828D981731F075
:1028C000828DE80FF11D858D90E008958FEF9FEFC9
:1028D0000895FC01918D228D892F90E0805C9F4F9F
:1028E000821B91098F739927089589E993E00E94CB
:1028F000691421E0892B09F420E0822F0895FC015E
:10290000848DDF01A80FB11DA35ABF4F2C91848D78
:1029100090E001968F739927848FA689B7892C93AD
:10292000A089B1898C9180648C93938D848D981348
:1029300006C00288F389E02D80818F7D8083089511
:10294000EF92FF920F931F93CF93DF93EC0181E0FF
:10295000888F9B8D8C8D981305C0E889F9898081BB
:1029600085FD24C0F62E0B8D10E00F5F1F4F0F73F7
:102970001127E02E8C8DE8120CC00FB607FCFACFA1
:10298000E889F989808185FFF5CFCE010E947F1407
:10299000F1CF8B8DFE01E80FF11DE35AFF4FF0825E
:1029A0000B8FEA89FB898081806207C0EE89FF89ED
:1029B0006083E889F98980818064808381E090E088
:1029C000DF91CF911F910F91FF90EF900895CF93DA
:1029D000DF93EC01888D8823C9F0EA89FB89808127
:1029E00085FD05C0A889B9898C9186FD0FC00FB6F9
:1029F00007FCF5CF808185FFF2CFA889B9898C913A
:102A000085FFEDCFCE010E947F14E7CFDF91CF91FC
:102A1000089580E090E0892B29F00E9475148111BF
:102A20000C9400000895CF93DF93EC019C818E817C
:102A3000981758F4E881F9810084F185E02D42E08F
:102A4000CE0109958C818F5F8C83DF91CF910895A2
:102A50000895E091F5028091F402E81730F4F0E077
:102A6000EA50FD4F808190E008958FEF9FEF089529
:102A70009091F5028091F402981750F4E92FF0E05C
:102A8000EA50FD4F208130E09F5F9093F50202C035
:102A90002FEF3FEFC90108958091F40290E020915B
:102AA000F502821B9109089585ED8093BC00809109
:102AB000BC0084FDFCCF10923C0308954091C602F7
:102AC000262F30E0240F311D21323105DCF4209116
:102AD0003C032430C9F4FC0180E090E0861758F4F0
:102AE0003091C6022191DC01AC55BD4FA30FB11D41
:102AF0002C930196F3CF8091C602680F6093C602B3
:102B000080E0089581E0089582E00895CF92DF92F9
:102B1000EF92FF920F931F93CF93DF937C01262FA9
:102B2000972F8A0180913D03882391F0C62FD72FDC
:102B30006E01C40ED51ECC15DD0571F06991D7016B
:102B4000ED91FC910190F081E02DC7010995F3CF43
:102B5000642F822F0E945E15C801DF91CF911F91D3
:102B60000F91FF90EF90DF90CF900895CF93DF9378
:102B70001F92CDB7DEB7698320913D032223D1F0A8
:102B800020916003203240F021E030E0FC013383EB
:102B9000228380E090E015C080913E03E82FF0E0B2
:102BA000E15CFC4F998190838F5F80933E0380931B
:102BB000600305C061E0CE0101960E945E1581E0D0
:102BC00090E00F90DF91CF9108950E9472293FB756
:102BD000F8948091F0029091F102A091F202B091EC
:102BE000F30226B5A89B05C02F3F19F00196A11D41
:102BF000B11D3FBFBA2FA92F982F8827820F911D93
:102C0000A11DB11DBC01CD0142E0660F771F881FD9
:102C1000991F4A95D1F708952FB7F8946091EC0267
:102C20007091ED028091EE029091EF022FBF089516
:102C30001F920F920FB60F9211242F933F938F93F1
:102C40009F93AF93BF938091EC029091ED02A0917E
:102C5000EE02B091EF023091EB0223E0230F2D370B
:102C600020F40196A11DB11D05C026E8230F029690
:102C7000A11DB11D2093EB028093EC029093ED0215
:102C8000A093EE02B093EF028091F0029091F102D6
:102C9000A091F202B091F3020196A11DB11D8093A3
:102CA000F0029093F102A093F202B093F302BF916D
:102CB000AF919F918F913F912F910F900FBE0F90E9
:102CC0001F9018951F920F920FB60F9211242F93F9
:102CD0003F934F935F936F937F938F939F93AF93A4
:102CE000BF93EF93FF93E0912301F09124010995A5
:102CF000FF91EF91BF91AF919F918F917F916F91D4
:102D00005F914F913F912F910F900FBE0F901F90A9
:102D100018951F920F920FB60F9211242F933F9385
:102D20004F935F936F937F938F939F93AF93BF93D3
:102D3000EF93FF93E0912101F09122010995FF911A
:102D4000EF91BF91AF919F918F917F916F915F9123
:102D50004F913F912F910F900FBE0F901F9018959C
:102D60006115710579F0FB0101900020E9F73197B9
:102D7000AF01461B570BDC01ED91FC910280F38102
:102D8000E02D099480E090E008954F925F926F9259
:102D90007F92EF92FF920F931F93CF93DF93CDB764
:102DA000DEB7A1970FB6F894DEBF0FBECDBF7C0192
:102DB000FA01CB0119A2223008F42AE08E010F5D3E
:102DC0001F4F422E512C612C712CBF01A301920187
:102DD0000E944A29F901CA01015011096A3014F40C
:102DE000605D01C0695CD8016C93232B242B252BDB
:102DF00061F7B801C7010E94B016A1960FB6F8940A
:102E0000DEBF0FBECDBFDF91CF911F910F91FF901D
:102E1000EF907F906F905F904F9008950F931F9366
:102E2000CF93DF93EC010E94B0168C0162E372E055
:102E3000CE010E94B016800F911FDF91CF911F919C
:102E40000F9108951F920F920FB60F9211242F9396
:102E50003F934F935F936F937F938F939F93AF9322
:102E6000BF93EF93FF9389E993E00E947F14FF9152
:102E7000EF91BF91AF919F918F917F916F915F91F2
:102E80004F913F912F910F900FBE0F901F9018956B
:102E90001F920F920FB60F9211242F938F939F932F
:102EA000EF93FF93E091A903F091AA038081E09151
:102EB000AF03F091B00382FD12C090818091B20304
:102EC0008F5F8F732091B303821751F0E091B203AB
:102ED000F0E0E756FC4F958F8093B20301C08081EC
:102EE000FF91EF919F918F912F910F900FBE0F90B7
:102EF0001F901895DC01ED91FC910084F185E02D87
:102F000040E009940F931F93CF938C01FC016483DD
:102F10009085C62FC90F6C2F6F70C8010E947A1759
:102F20006C2F62956F706061C801CF911F910F91F6
:102F30000C947A170F931F93CF93DF931F92CDB703
:102F4000DEB78C01FC018681681728F4C80149832B
:102F50000E9482174981F80187818695869586951A
:102F6000481758F44583642F606BC8010F90DF91B8
:102F7000CF911F910F910C947A170F90DF91CF9101
:102F80001F910F910895CF92DF92EF92FF920F93CE
:102F90001F93CF93DF93EC01F62EC42ED22E8F8198
:102FA000869586958695081710F00FEF080F1D2D52
:102FB000011780F0412F6F2DCE010E949A17EF2C40
:102FC000CE1430F060E0CE010E941315E394F8CFE8
:102FD0001F5FEECF4D2D6F2DCE01DF91CF911F9151
:102FE0000F91FF90EF90DF90CF900C949A172F9253
:102FF0003F924F925F926F927F928F929F92AF9289
:10300000BF92CF92DF92EF92FF920F931F93CF93D5
:10301000DF93CDB7DEB727970FB6F894DEBF0FBEAC
:10302000CDBFDC011B960D911C911C97011511055C
:1030300009F462C19F838E83F801B4913196449163
:10304000319654903196A491EA2EF12CF7E0EF0ED0
:10305000F11C23E0F594E7942A95E1F7EB82F8015F
:10306000349674913196E491671758F0862F90E06A
:103070002E2F30E0F901E70FF11D8E179F070CF49A
:1030800073C06D3069F4AE81BF8116968C91882330
:1030900009F467C060E08E819F810E94821761C041
:1030A0006A3009F029C1EE81FF8181856581D62EC4
:1030B0008E9DD00C11248781869586958695D8168D
:1030C00030F08285882319F082E08287D12C4D2D43
:1030D00060E08E819F810E949A17AE81BF811A960F
:1030E0008C911A97823008F43CC015962C91159754
:1030F0001B96ED91FC911C97309741F03396E4912B
:1031000019960C91E09FE02D112401C0E0E08FEFB3
:10311000820F0E2F10E0095F1F4F93E01595079562
:103120009A95E1F7080FEE81FF8146814150648155
:10313000CF010E94C317AE81BF8119968C91199758
:103140006D2D8E9D600D1124660F660F660F17960C
:103150008C91861708F460E060648E819F810E94E4
:103160007A1781E090E0CAC050E05B2BC801069658
:10317000671BEE81FF81F185F9834230510588F4A8
:10318000452B09F019825E9C90015F9C300D112443
:10319000629F8001639F100D1124080F191F412C9D
:1031A00024C0EA2FE77021F048E0442E4E1A01C0F7
:1031B000412CA82FFC0140E050E07E2F7A1B7617AF
:1031C00028F47491470F511D3196F7CFFC01E60F9B
:1031D000F11D54904E9D80014F9D100D5E9D100D70
:1031E0001124020F131F080F191FAE81BF811496FF
:1031F000BC91BC83EE81FF813580652C712CCC2481
:10320000C394D12C812C912C7FEF7C0D7A838B8100
:10321000781708F05FC0212CAE81BF8119968C9180
:10322000281608F051C07A81711102C0222051F095
:10323000AE81BF8115964C9115974F5F6C81CD0182
:103240000E949A17A12CB12CA51488F5F501E80D60
:10325000F91DE00FF11F2491442061F0CE14DF042A
:1032600049F4E22FF0E0042C02C0F595E7950A94AA
:10327000E2F72E2FEE81FF818185823079F4E22FF3
:103280002110E295EF70F0E0E35EF74F2491622F9A
:103290008E819F812D830E9413152D81622F8E8137
:1032A0009F810E941315FFEFAF1ABF0ACDCFB12C3B
:1032B0007981B71639F060E08E819F810E941315E5
:1032C000B394F6CF2394A8CF860C971CBFEFCB1AEC
:1032D000DB0A9ACFAE81BF8117968C91179786959E
:1032E00086958695381608F03CCF15963C92159732
:1032F000632D606BCD0133CF80E090E027960FB651
:10330000F894DEBF0FBECDBFDF91CF911F910F911B
:10331000FF90EF90DF90CF90BF90AF909F908F90F5
:103320007F906F905F904F903F902F9008951F92E5
:103330000F920FB60F9211242F933F934F935F93E9
:103340006F937F938F939F93AF93BF93EF93FF936D
:103350008091B900887F803609F49CC068F5883276
:1033600009F45BC090F4803109F454C038F4882328
:1033700009F4F6C0883009F44DC0F6C0883109F46C
:103380004CC0803209F45DC0EFC0803409F468C0DD
:1033900048F4803309F455C0883309F0E5C08093C0
:1033A0003A03D8C0803509F44FC0883509F45DC0B0
:1033B000883409F0D9C0D6C0883909F4C7C0A8F448
:1033C000883709F467C038F4883609F463C0803759
:1033D00009F460C0C9C0883809F4B8C0803909F45C
:1033E0005FC0803809F0C0C05BC0803B09F486C074
:1033F00038F4803A09F466C0883A09F47FC0B4C052
:10340000803C09F4A7C0883C09F4A4C0883B09F4B7
:103410008AC0AAC08091170310C09091390380918F
:103420003803981770F5E091390381E08E0F80938F
:103430003903F0E0E85EFC4F80818093BB0085ECAF
:1034400086C080933A038EC0E091390381E08E0FED
:10345000809339038091BB00F0E0E85EFC4F8083ED
:1034600090913903809138036EC0E091390381E077
:103470008E0F809339038091BB00F0E0E85EFC4F33
:10348000808380913B0381116DC081E0809316039E
:1034900084EA61C083E080933C031092EA02CFCFBC
:1034A0008091EA02803208F051C0E091EA0281E0A6
:1034B0008E0F8093EA028091BB00F0E0E653FD4F4F
:1034C0008083BDCF85EC8093BC0010923C0380913B
:1034D000EA02803230F4E091EA02F0E0E653FD4F78
:1034E00010826091EA0270E0E091C802F091C90296
:1034F0008AEC92E009951092EA0236C084E080934B
:103500003C031092C7021092C602E091C402F091EF
:10351000C50209958091C602811105C081E08093A2
:10352000C6021092A402E091C70281E08E0F809340
:10353000C702F0E0EC55FD4F80818093BB00909175
:10354000C7028091C602981708F479CF85E8809366
:10355000BC000AC085EC8093BC0010923C0304C000
:1035600010923A030E945415FF91EF91BF91AF91D1
:103570009F918F917F916F915F914F913F912F918B
:103580000F900FBE0F901F90189510923C0381E092
:1035900080933B031092160361E082E10E94DD1DDF
:1035A00061E083E10E94DD1DE9EBF0E080818E7F28
:1035B000808380818D7F808388E48093B80085E458
:1035C0008093BC000895FC01AC014E5F5F4F8FEF0C
:1035D00091E32191822728E030E087FF03C0880F24
:1035E000892701C0880F21503109B9F7E417F50781
:1035F00081F70895E2E6F5E0909196039183828346
:103600006683258347708481807E482B4483CF0165
:103610000895E9E9F3E0A089B18982E08C93A4855B
:10362000B5851C92A685B78580E18C93108EA48900
:10363000B58986E08C93A289B3898C9180618C9343
:10364000A289B3898C9188608C93A289B3898C916B
:1036500080688C930288F389E02D80818F7D808340
:10366000089590E0FC01E058F74F2491FC01E459E3
:10367000F74F8491882399F090E0880F991FFC01FF
:10368000EE59F74FA591B491FC01E85AF74F859197
:1036900094918FB7F894EC91E22BEC938FBF08953F
:1036A0000F931F93CF93DF93EC018C8182958695C6
:1036B000877091F44B8146954695469550E0BE0142
:1036C000695F7F4F83E693E00E947729EB81E6955F
:1036D000E695E695F0E077C0813031F48F814AE0DD
:1036E00063E673E090E007C0823041F44AE063E6AD
:1036F00073E08F8198850E940A2168C0833041F46D
:103700004AE063E673E08F8198850E9463215EC082
:10371000843051F46F81788589859A852AE043E663
:1037200053E00E94152152C0853051F46F81788595
:1037300089859A852AE043E653E00E94412146C0EC
:10374000873071F42B85293008F028E06F81788567
:1037500089859A8503E613E042E00E94A52036C0E1
:103760008630A1F520E0EB81E695E695E6952E17EB
:1037700038F5E22FF0E0AF01440F551FDA01AD59E3
:10378000BC4FEC0FFD1F8781082E000C990B34E015
:10379000959587953A95E1F78F708A3010F4805DA2
:1037A00001C0895C8C93DA01AC59BC4F87818F7062
:1037B0008A3010F4805D01C0895C8C932F5FD3CF79
:1037C000F0E0EE0FFF1FED59FC4F108283E693E00F
:1037D000DF91CF911F910F9108954F925F926F9259
:1037E0007F928F929F92AF92BF92CF92DF92EF9291
:1037F000FF926B017C01B42E9B01AC010E94452914
:10380000882319F068E572E027C026013701E894A3
:1038100077F82FEF3FEF4FE75FE7C301B2010E9458
:10382000452981110DC02FEF3FEF4FE75FE7C3013F
:10383000B2010E949D2618161CF46CE572E00CC0C3
:103840002FEF3FEF4FE75FE4C701B6010E94402929
:10385000181694F460E672E083E595E0FF90EF902F
:10386000DF90CF90BF90AF909F908F907F906F90A0
:103870005F904F900C94B0162FEF3FEF4FE75FEC47
:10388000C701B6010E949D2687FDE4CF20E030E00D
:10389000A901C701B6010E949D2687FF11C0E091D2
:1038A0005305F09154050190F081E02D6DE283E520
:1038B00095E009954C01F7FAF094F7F8F09402C0FE
:1038C000812C912CA12C60E070E080E09FE3AB1490
:1038D00041F020E030E040E251E40E949F28A394B0
:1038E000F6CF9B01AC01C701B6010E9433282B0122
:1038F0003C010E9411296B017C010E94A2269B01C0
:10390000AC01C301B2010E9432282B013C012AE024
:10391000B701A60183E595E00E94C5167C01E80C7D
:10392000F91CBB2069F0E0915305F091540501901A
:10393000F081E02D6EE283E595E00995E80EF91E31
:10394000DB2CDD2031F120E030E040E251E4C30126
:10395000B2010E9403272B013C010E9411294B0157
:10396000A12CB12C2AE0B501A40183E595E00E94C9
:10397000C516E80EF91EC501B4010E94A2269B01DE
:10398000AC01C301B2010E9432282B013C01DA9440
:10399000D8CFC701FF90EF90DF90CF90BF90AF904E
:1039A0009F908F907F906F905F904F900895CF93EE
:1039B000DF93262F8F3F19F0C4E3D2E002C0C4E6A4
:1039C000D2E040E0682F80E00E94FA1ABE010E9417
:1039D000FB12DF91CF910C948A06FC018091960333
:1039E00081839481907F916094838091620380FFB2
:1039F00003C0CF010C948A0681E498E09F938F93D3
:103A00000E941E050F900F9080E00895382F20919E
:103A1000600390915F03213208F049C080913C031C
:103A20008111FCCF42E040933C0330933B033FEFD6
:103A300030933A031092390320933803AFE3B3E095
:103A400048E153E0FA013E2F341B321718F43D9140
:103A50003193F9CF1092170320911703990F922BEE
:103A60009093170390911603913061F4109216030E
:103A7000909117039093BB009091BC0093FDF8CFF9
:103A800095EC01C095EE9093BC0090913C03923070
:103A9000E1F390913A039F3F79F080913A038032AD
:103AA00041F080913A03803331F084E005C081E039
:103AB00003C082E001C083E010923E0310926003D5
:103AC00010923D030895CF93C82F80914A0521E0BD
:103AD00020933D0380935F0310923E031092600396
:103AE000692F86E394E00E94B6156C2F86E394E07C
:103AF0000E94B61581E0CF910C94061DCF92DF9203
:103B0000EF92FF92CF93DF93D82F0E940C166B0198
:103B10007C0181E0D11180E080938805C0E00E94A3
:103B20000C16AB01BC014C195D096E097F09403DC3
:103B300057406105710580F4C1110EC0A8950E941F
:103B4000CF04909187059770933049F7C1E0809139
:103B500088058D13E3CFE3CF8C2FDF91CF91FF90BA
:103B6000EF90DF90CF900895833081F028F481307A
:103B700099F08230A1F008958730A9F08830B9F02B
:103B80008430D1F4809180008F7D03C080918000CB
:103B90008F7780938000089584B58F7702C084B5B5
:103BA0008F7D84BD08958091B0008F7703C0809190
:103BB000B0008F7D8093B00008951F93CF93DF9363
:103BC000282F30E0F901E35DF74F8491F901E058C7
:103BD000F74FD491F901E459F74FC491CC23C9F0C0
:103BE000162F81110E94B41DEC2FF0E0EE0FFF1F85
:103BF000E85AF74FA591B4918FB7F894111105C009
:103C00009C91ED2FE095E92302C0EC91ED2BEC9314
:103C10008FBFDF91CF911F9108958E3008F08E50A5
:103C20008770806480937C0080917A0080648093A8
:103C30007A0080917A0086FDFCCF809178002091F7
:103C4000790090E0922B08958F929F92AF92BF924D
:103C5000CF92DF92EF92FF926B017C010E94E715F9
:103C60004B015C01C114D104E104F104F1F00E94A4
:103C7000E715DC01CB0188199909AA09BB09883E1F
:103C80009340A105B10570F321E0C21AD108E10803
:103C9000F10888EE880E83E0981EA11CB11CC114A7
:103CA000D104E104F10419F7DDCFFF90EF90DF902C
:103CB000CF90BF90AF909F908F900895DF92EF923A
:103CC000FF920F931F93CF93DF9300D000D000D0CB
:103CD000CDB7DEB780E094E20E94631D62E370E03E
:103CE00080E090E00E94241E80914A0590913C0360
:103CF0009111FCCF91E090933C0390933B032FEF05
:103D000020933A031092390325E0209338039093CF
:103D1000170390911703880F892B809317038091C5
:103D20001603813061F4109216038091170380937B
:103D3000BB008091BC0083FDF8CF85EC01C085EE0F
:103D40008093BC0080913C038130E1F38091390382
:103D5000863018F48091390301C086E0A8E1B3E011
:103D600026EF32E0F9019E2F921B981718F49D91CF
:103D70009193F9CF1092F5028093F402863009F006
:103D80005FC0CE0101967C018C0186E0D82EDE0C4E
:103D900086E394E00E943815F80181938F01DE12CA
:103DA000F7CFD9800A811B81C7010E94E31A18133B
:103DB00047C0FC801D81EE80CE0104960E94E31A6C
:103DC000E8123EC0602F70E07D2980E090E00E9404
:103DD000A22620E030E04FE253E40E94032720E0D7
:103DE0003FEF4FE757E40E949F2820E030E044E394
:103DF00052E40E94322860934F05709350058093DF
:103E0000510590935205612F70E07F2980E090E08A
:103E10000E94A22620E030E048EC52E40E940327F2
:103E200020E03FEF4FE757E40E949F2860934B0547
:103E300070934C0580934D0590934E0581E001C031
:103E400080E026960FB6F894DEBF0FBECDBFDF919F
:103E5000CF911F910F91FF90EF90DF90089578948C
:103E600084B5826084BD84B5816084BD85B582607F
:103E700085BD85B5816085BD80916E008160809330
:103E80006E00109281008091810082608093810099
:103E900080918100816080938100809180008160A9
:103EA000809380008091B10084608093B100809104
:103EB000B00081608093B00080917A00846080932C
:103EC0007A0080917A00826080937A0080917A00F3
:103ED000816080937A0080917A00806880937A0074
:103EE0001092C100A89580E090E0892B11F00E940B
:103EF00000000E94091B8BEF95E09F938F930E9417
:103F00001E05809162038D7F809362030F900F9056
:103F100080E090E0892B51F08EEE95E09F938F9397
:103F20000E941E050E9400000F900F9041E050E09B
:103F300063E071E081E693E00E94C1276FEF81E0CA
:103F400090E00E94E927809176028F788093760234
:103F500010926C0210926B028DE191E00E94F204CB
:103F60008AEA93E190937D0280937C021F921F92D4
:103F70001F921F9289EB95E09F938F930E941E05DD
:103F80000E940C160F900F900F900F900F900F90B3
:103F90000E940C160E94CF04A8958091750282FFA2
:103FA000F7CF81EE95E09F938F930E941E050E94AC
:103FB00039120F900F908091750282FB882780F94B
:103FC0001F928F9389EC95E09F938F930E941E051B
:103FD000A8950F900F900F900F90A8950E94CF0476
:103FE0000E94AF0F0E940915F8CFCF93DF93FC0119
:103FF000108211821282148215821682DC011796B9
:104000008AE1ED0119928A95E9F782E08383DF91D5
:10401000CF910895CF93DF93E9E9F3E01382128201
:1040200088EE93E0A0E0B0E084839583A683B78315
:1040300029E231E03183208325EC30E03587248785
:1040400024EC30E03787268720EC30E0318B208B62
:1040500021EC30E0338B228B22EC30E0358B248B4B
:1040600026EC30E0378B268B118E128E138E148E39
:10407000E6E3F4E01382128284839583A683B783F8
:104080008BE391E09183808383E895E00E94F51FA4
:1040900082E695E00E94F51FE3E5F5E013821282C7
:1040A000D1E0D187148613868DE491E091838083DB
:1040B00089E295E00E94F51FE9E2F5E0D6831582DA
:1040C00088E095E00E94F51FE8E0F5E0C2E0C683D5
:1040D000D58387EE94E00E94F51FE7EEF4E083E0DD
:1040E000868385E2858386EC94E00E94F51FE6ECEA
:1040F000F4E084E0868387E1858385EA94E00E948A
:10410000F51FE5EAF4E085E0868380E1858384E8B5
:1041100094E00E94F51FE4E8F4E086E08683C5831E
:1041200083E694E00E94F51FE3E6F4E087E08683EF
:10413000C58382E494E00E94F51FE2E4F4E088E0A5
:104140008683C583DF91CF910895EF920F931F93DC
:10415000CF93DF93E80147FD02C034E001C034E1B2
:10416000E42F440FFF0BF7FF03C0F195E195F10930
:10417000E32E022F2E2FAE010E947B23CE01DF9172
:10418000CF911F910F91EF900895FC0188279927F7
:10419000E89421912032E9F3293010F02E30C8F351
:1041A0002B3241F02D3239F4689404C00E94392139
:1041B000820F911D219120532A30C0F31EF4909557
:1041C00081959F4F08951F93FC0199278827BC0173
:1041D000E89411911032E9F3193010F01E30C8F351
:1041E0001B3251F01D3249F4689406C00E9424210C
:1041F000610F711D811D911D119110531A30B0F383
:104200003EF490958095709561957F4F8F4F9F4FAD
:104210001F910895BB274A3031F4992322F4BDE25F
:10422000909581959F4F0C946421BB272A3051F4BF
:10423000992342F4BDE290958095709561957F4FEA
:104240008F4F9F4F0C944221592F482F372F262FE5
:10425000660F771F881F991F660F771F881F991F8A
:10426000620F731F841F951F660F771F881F991F8A
:1042700008957AE0979F902D879F802D910D1124AE
:104280000895BB27FA01A62F6217710581059105D4
:10429000330B30FB66F0AA27660F771F881F991F24
:1042A000AA1FA21710F0A21B63953850A9F7A05DB2
:1042B000AA3308F0A95DA19336F7B111B19310822A
:1042C000CA010C94F725BB27FB015527AA27880FA5
:1042D000991FAA1FA41710F0A41B83955051B9F77A
:1042E000A05DAA3308F0A95DA193009779F7B111F9
:1042F000B1931192CB010C94F725AEE0B0E0E3E866
:10430000F1E20C9409288C01CA014EE04C831A8317
:10431000098377FF02C060E070E8FB013197FE83FC
:10432000ED83A901BC01CE0101960E94A9214D8116
:104330005E8157FD0AC02F813885421753070CF460
:104340009A01F801E20FF31F10822E96E4E00C941C
:104350002528ACE0B0E0EFEAF1E20C94FB277C0109
:104360006B018A01FC0117821682838181FFBDC126
:10437000CE0101964C01F7019381F60193FD8591E1
:1043800093FF81916F01882309F4ABC1853239F421
:1043900093FD859193FF81916F01853229F4B701D7
:1043A00090E00E940726E7CF512C312C20E02032EC
:1043B000A0F48B3269F030F4803259F0833269F422
:1043C00020612CC08D3239F0803339F4216026C051
:1043D0002260246023C0286021C027FD27C030ED63
:1043E000380F3A3078F426FF06C0FAE05F9E300DB1
:1043F0001124532E13C08AE0389E300D1124332E21
:1044000020620CC08E3221F426FD6BC1206406C0F0
:104410008C3611F4206802C0883641F4F60193FD11
:10442000859193FF81916F018111C1CF982F9F7D5D
:104430009554933028F40C5F1F4FFFE3F9830DC0B0
:10444000833631F0833771F0833509F05BC022C0C9
:10445000F801808189830E5F1F4F44244394512CBF
:10446000540115C03801F2E06F0E711CF801A080F4
:10447000B18026FF03C0652D70E002C06FEF7FEFB3
:10448000C5012C870E94EC252C0183012C852F77F8
:10449000222E17C03801F2E06F0E711CF801A080C7
:1044A000B18026FF03C0652D70E002C06FEF7FEF83
:1044B000C5012C870E94E1252C012C852068222E25
:1044C000830123FC1BC0832D90E048165906B0F4ED
:1044D000B70180E290E00E9407263A94F4CFF501FC
:1044E00027FC859127FE81915F01B70190E00E9432
:1044F000072631103A94F1E04F1A51084114510443
:1045000071F7E5C0843611F0893639F5F80127FFD7
:1045100007C060817181828193810C5F1F4F08C049
:1045200060817181072E000C880B990B0E5F1F4F65
:104530002F76722E97FF09C09095809570956195A2
:104540007F4F8F4F9F4F2068722E2AE030E0A401EA
:104550000E943F26A82EA81844C0853729F42F7E34
:10456000B22E2AE030E025C0F22FF97FBF2E8F3621
:10457000C1F018F4883579F0B4C0803719F0883765
:1045800021F0AFC02F2F2061B22EB4FE0DC08B2DB5
:104590008460B82E09C024FF0AC09F2F9660B92EF0
:1045A00006C028E030E005C020E130E002C020E194
:1045B00032E0F801B7FE07C060817181828193818A
:1045C0000C5F1F4F06C06081718180E090E00E5F3C
:1045D0001F4FA4010E943F26A82EA818FB2DFF778D
:1045E0007F2E76FE0BC0372D3E7FA51450F474FE4F
:1045F0000AC072FC08C0372D3E7E05C0BA2C372D8C
:1046000003C0BA2C01C0B52C34FF0DC0FE01EA0D69
:10461000F11D8081803311F4397E09C032FF06C05C
:10462000B394B39404C0832F867809F0B39433FD18
:1046300013C030FF06C05A2CB31418F4530C5B1887
:10464000B32CB31468F4B70180E290E03C870E9479
:104650000726B3943C85F5CFB31410F43B1801C082
:10466000312C34FF12C0B70180E390E03C870E94F8
:1046700007263C8532FF17C031FD03C088E790E074
:1046800002C088E590E0B7010CC0832F867859F00E
:1046900031FF02C08BE201C080E237FD8DE2B7013D
:1046A00090E00E940726A51438F4B70180E390E05B
:1046B0000E9407265A94F7CFAA94F401EA0DF11D3F
:1046C0008081B70190E00E940726A110F5CF33202A
:1046D00009F451CEB70180E290E00E9407263A9497
:1046E000F6CFF7018681978102C08FEF9FEF2C965E
:1046F000E2E10C9417284F925F926F927F929F9203
:10470000AF92BF92CF92DF92EF92FF920F931F93DF
:10471000CF93DF93CDB7DEB729970FB6F894DEBFFE
:104720000FBECDBF6A01122FB02E2BE3201720F051
:10473000FF24F394F00E02C0BCE3FB2E0F2D27E004
:10474000AE014F5F5F4F0E940925AC018981982F10
:104750009970913031F0E1FC06C0E0FE06C090E2B5
:1047600005C09DE203C09BE201C090E0EE2DE07128
:1047700083FF3CC0911102C083E001C084E0811737
:1047800018F4212F281B01C020E0E1110BC0F60115
:10479000822F30E2882319F031938150FBCFC20E73
:1047A000D11C20E0992329F0D6019C93F601319683
:1047B0006F01C6010396E2FE0AC03EE4D6013C93B7
:1047C00041E411964C93119712963C9306C03EE635
:1047D000F601308341E641833283FC01322F40E20F
:1047E000332309F442C041933150FACF82FF44C0D1
:1047F000911102C083E001C084E0811718F4212FD9
:10480000281B01C020E0E1110BC0F601822F30E22D
:10481000882319F031938150FBCFC20ED11C20E0C8
:10482000992329F0D6019C93F60131966F01C601B8
:104830000396E2FE0BC039E4D6013C933EE41196A8
:104840003C93119736E412963C9307C039E6F60183
:1048500030833EE6318336E63283FC01322F40E27C
:10486000332319F041933150FBCFFC01E20FF11DCE
:1048700010828EEF9FEFB7C0F1E0911101C0F0E020
:104880006F2F70E01416150624F49A012F5F3F4F26
:1048900002C021E030E0260F371FBB2029F06B2D2E
:1048A00070E06F5F7F4F02C060E070E0260F371F3F
:1048B000612F70E0261737071CF4121B212F01C04F
:1048C00020E03E2D387159F4D601322F60E23323B7
:1048D00019F06D933150FBCFC20ED11C20E0FF23A5
:1048E00031F0D6019C93B6016F5F7F4F6B01E111F0
:1048F0000BC0F601922F30E3992319F031939150B8
:10490000FBCFC20ED11C20E09F2D940F3A81782F4F
:104910007071A72E84FF03C0313309F4915019162A
:1049200024F4993018F098E001C091E0E42F852F2D
:1049300057FF02C0E0E080E06E2F782FE0E0F0E06B
:10494000AEE29A2E3A01691A71082A01461A570AEC
:104950000B2D10E01195019511096F3F8FEF78072E
:1049600029F4D6019C92C60101966C01461757079F
:1049700084F0661677066CF47F01E40CF51CA1E068
:10498000B0E0AC0FBD1FEA0EFB1ED7011196BC9024
:1049900002C090E3B92E615071093196C6010196AB
:1049A0007C016017710724F0D601BC926C01D5CF51
:1049B0006417750741F4363320F4353321F4A11020
:1049C00002C081E3B82EF601B082F701822F90E297
:1049D000882319F091938150FBCFF701E20FF11D6D
:1049E000108280E090E029960FB6F894DEBF0FBEEB
:1049F000CDBFDF91CF911F910F91FF90EF90DF908E
:104A0000CF90BF90AF909F907F906F905F904F90AE
:104A10000895283008F027E03327DA01990F311D77
:104A200087FD916000966105710539F432602E5F53
:104A30003D9330E32A95E1F708959F3F30F08038A9
:104A40007105610509F03C5F3C5F3D93913008F0D2
:104A50008068911DDF93CF931F930F93FF92EF9286
:104A6000192F987F9695E92F96959695E90FFF2730
:104A7000EE53FF4F99273327EE24FF24A701E701C8
:104A800005900894079428F4360FE71EF81E491F76
:104A9000511D660F771F881F991F0694A1F7059077
:104AA000079428F4E70EF81E491F561FC11D770F03
:104AB000881F991F661F0694A1F70590079428F494
:104AC000F80E491F561FC71FD11D880F991F661F5B
:104AD000771F0694A1F70590079420F4490F561FFD
:104AE000C71FD81F990F661F771F881F0694A9F745
:104AF00084911095177041F0D695C79557954795B5
:104B0000F794E7941A95C1F7E8E6F0E068941590F9
:104B1000159135916591959105907FE27395E11816
:104B2000F10A430B560BC90BD009C0F7E10CF11E7B
:104B3000431F561FC91FD01D7EF4703311F48A9590
:104B4000E6CFE894015030F0080F0AF4002702176E
:104B500008F4202F2395022F7A3328F079E37D93F0
:104B60002A95E9F710C07D932A9589F606949795C2
:104B70006795379517951794E118F10A430B560B73
:104B8000C90BD00998F023957E9173957A3308F07C
:104B900070E37C932013B8F77E9170617D9330F0C1
:104BA000839571E37D9370E32A95E1F71124EF90EB
:104BB000FF900F911F91CF91DF91992787FD9095DD
:104BC0000895FC010590615070400110D8F7809560
:104BD00090958E0F9F1F0895FC01615070400190C9
:104BE0000110D8F7809590958E0F9F1F0895DC01D6
:104BF000FC01672F71917723E1F7329704C07C9114
:104C00006D9370836291AE17BF07C8F308950F9339
:104C10001F93CF93DF93FB01238121FD03C08FEF0F
:104C20009FEF28C022FF16C046815781248135811D
:104C30004217530744F4A081B1819D012F5F3F4F7C
:104C4000318320838C93268137812F5F3F4F3783B9
:104C5000268310C0EB01092F182F0084F185E02D69
:104C60000995892BE1F68E819F8101969F838E8322
:104C7000812F902FDF91CF911F910F910895FA010D
:104C8000AA27283051F1203181F1E8946F936E7F8B
:104C90006E5F7F4F8F4F9F4FAF4FB1E03ED0B4E07C
:104CA0003CD0670F781F891F9A1FA11D680F791FBD
:104CB0008A1F911DA11D6A0F711D811D911DA11DCE
:104CC00020D009F468943F912AE0269F11243019DE
:104CD000305D3193DEF6CF010895462F4770405D79
:104CE0004193B3E00FD0C9F7F6CF462F4F70405D28
:104CF0004A3318F0495D31FD4052419302D0A9F783
:104D0000EACFB4E0A6959795879577956795BA957C
:104D1000C9F700976105710508959B01AC010A2E42
:104D200006945795479537952795BA95C9F7620F19
:104D3000731F841F951FA01D08950E94DF2608F48D
:104D400081E00895E89409C097FB3EF49095809522
:104D5000709561957F4F8F4F9F4F9923A9F0F92F41
:104D600096E9BB279395F695879577956795B795BF
:104D7000F111F8CFFAF4BB0F11F460FF1BC06F5FA5
:104D80007F4F8F4F9F4F16C0882311F096E911C0B7
:104D9000772321F09EE8872F762F05C0662371F0D8
:104DA00096E8862F70E060E02AF09A95660F771FEC
:104DB000881FDAF7880F9695879597F90895990FC8
:104DC0000008550FAA0BE0E8FEEF16161706E807D5
:104DD000F907C0F012161306E407F50798F0621BF6
:104DE000730B840B950B39F40A2661F0232B242BCB
:104DF000252B21F408950A2609F4A140A6958FEFEA
:104E0000811D811D08950E9416270C9487270E94FA
:104E1000792738F00E94802720F0952311F00C9418
:104E200070270C94762711240C94BB270E94982796
:104E300070F3959FC1F3950F50E0551F629FF001ED
:104E4000729FBB27F00DB11D639FAA27F00DB11D06
:104E5000AA1F649F6627B00DA11D661F829F22278F
:104E6000B00DA11D621F739FB00DA11D621F839F16
:104E7000A00D611D221F749F3327A00D611D231FEC
:104E8000849F600D211D822F762F6A2F11249F573A
:104E900050409AF0F1F088234AF0EE0FFF1FBB1F3D
:104EA000661F771F881F91505040A9F79E3F5105FC
:104EB00080F00C9470270C94BB275F3FE4F3983E7E
:104EC000D4F3869577956795B795F795E7959F5FA6
:104ED000C1F7FE2B880F911D9695879597F9089538
:104EE00097F99F6780E870E060E008959FEF80EC9D
:104EF000089500240A941616170618060906089540
:104F000000240A9412161306140605060895092EA5
:104F10000394000C11F4882352F0BB0F40F4BF2B14
:104F200011F460FF04C06F5F7F4F8F4F9F4F089554
:104F300057FD9058440F551F59F05F3F71F047954A
:104F4000880F97FB991F61F09F3F79F0879508952F
:104F5000121613061406551FF2CF4695F1DF08C04E
:104F6000161617061806991FF1CF8695710561056B
:104F700008940895E894BB2766277727CB0197F913
:104F80000895DC01CB01FC01F999FECF06C0F2BD0A
:104F9000E1BDF89A319600B40D9241505040B8F7F7
:104FA0000895F999FECF92BD81BDF89A992780B5F1
:104FB0000895DC01A40FB51F4150504048F0CB01CB
:104FC000840F951F2E910E94EA2741505040D0F740
:104FD0000895262FF999FECF92BD81BDF89A0197C9
:104FE00000B4021639F01FBA20BD0FB6F894FA9A31
:104FF000F99A0FBE08952F923F924F925F926F924F
:105000007F928F929F92AF92BF92CF92DF92EF9258
:10501000FF920F931F93CF93DF93CDB7DEB7CA1BD9
:10502000DB0B0FB6F894DEBF0FBECDBF09942A8804
:10503000398848885F846E847D848C849B84AA84AC
:10504000B984C884DF80EE80FD800C811B81AA8139
:10505000B981CE0FD11D0FB6F894DEBF0FBECDBF04
:10506000ED0108955058BB27AA270E944A280C94A6
:1050700087270E94792738F00E94802720F039F492
:105080009F3F19F426F40C9476270EF4E095E7FB85
:105090000C947027E92F0E94982758F3BA176207DB
:1050A00073078407950720F079F4A6F50C94BA27C6
:1050B0000EF4E0950B2EBA2FA02D0B01B901900133
:1050C0000C01CA01A0011124FF27591B99F0593F77
:1050D00050F4503E68F11A16F040A22F232F342FBF
:1050E0004427585FF3CF469537952795A795F0400D
:1050F0005395C9F77EF41F16BA0B620B730B840B22
:10510000BAF09150A1F0FF0FBB1F661F771F881FD9
:10511000C2F70EC0BA0F621F731F841F48F4879531
:1051200077956795B795F7959E3F08F0B0CF939523
:10513000880F08F09927EE0F9795879508950E949C
:10514000B3280C9487270E94802758F00E94792763
:1051500040F029F45F3F29F00C94702751110C9412
:10516000BB270C9476270E94982768F39923B1F304
:10517000552391F3951B550BBB27AA27621773077D
:10518000840738F09F5F5F4F220F331F441FAA1F11
:10519000A9F335D00E2E3AF0E0E832D091505040CD
:1051A000E695001CCAF72BD0FE2F29D0660F771F7B
:1051B000881FBB1F261737074807AB07B0E809F061
:1051C000BB0B802DBF01FF2793585F4F3AF09E3FE6
:1051D000510578F00C9470270C94BB275F3FE4F3E3
:1051E000983ED4F3869577956795B795F7959F5F29
:1051F000C9F7880F911D9695879597F90895E1E075
:10520000660F771F881FBB1F621773078407BA07D3
:1052100020F0621B730B840BBA0BEE1F88F7E0952E
:1052200008950E94A02788F09F5798F0B92F9927DA
:10523000B751B0F0E1F0660F771F881F991F1AF081
:10524000BA95C9F714C0B13091F00E94BA27B1E005
:1052500008950C94BA27672F782F8827B85F39F004
:10526000B93FCCF3869577956795B395D9F73EF41A
:1052700090958095709561957F4F8F4F9F4F0895C2
:105280000E94DF2608F48FEF08950E94DF26880B26
:10529000990B0895A1E21A2EAA1BBB1BFD010DC09C
:1052A000AA1FBB1FEE1FFF1FA217B307E407F507D6
:1052B00020F0A21BB30BE40BF50B661F771F881FB2
:1052C000991F1A9469F760957095809590959B0148
:1052D000AC01BD01CF010895EE0FFF1F0590F491C1
:1052E000E02D099481E090E0F8940C948629FB016C
:1052F000DC014150504048F001900D920020C9F768
:1053000001C01D9241505040E0F70895F894FFCF3E
:10531000FFFFFF00FCE1A8A83408FA07D7077C07C5
:1053200050073E07A7085D08FF0207DA068509CD8A
:10533000080C140C1400000000A0140D143814E71D
:1053400014691447145B1400000000B61586157626
:105350000428154C153815291500000000F7170D05
:105360001476047504EF1120004F4B004E41434B5F
:105370000021004661696C65642072656164696E34
:10538000672074656D7065726174757265206672F0
:105390006F6D2073656E736F72004661696C656432
:1053A0002072656164696E672068756D69646974EF
:1053B000792066726F6D2073656E736F720046613F
:1053C000696C65642072656164696E6720736F69DA
:1053D0006C206D6F6973747572652066726F6D20D5
:1053E00073656E736F72004661696C6564207265E7
:1053F0006164696E67206C69676874206C657665A6
:105400006C2066726F6D2073656E736F72004661FB
:10541000696C65642072656164696E67206C65768D
:10542000656C2076616C75652066726F6D207365A2
:105430006E736F7200543D004300483D00250053D9
:105440003D000D0A004C3D004D7973656E736F721F
:10545000735F47617264656E5F53757065727669DC
:10546000736F7200312E32006E616E00696E6600DD
:0A5470006F766600322E312E3100F7
:00000001FF
